:020000040800F2
:1000000000000220C1010008FF01000875960008E9
:10001000070200080B0200080F02000800000000A1
:1000200000000000000000000000000013020008B3
:1000300017020008000000001B0200086596000877
:1000400000000000000000000000000000000000B0
:1000500000000000000000000000000000000000A0
:100060000000000000000000000000000000000090
:100070000000000000000000000000000000000080
:100080000000000000000000000000000000000070
:100090000000000000000000000000000000000060
:1000A0000000000000000000000000000000000050
:1000B000BD960008000000000000000000000000E5
:1000C0000000000000000000000000000000000030
:1000D0000000000000000000000000000000000020
:1000E0000000000000000000000000000000000010
:1000F0000000000000000000000000000000000000
:1001000000000000000000000000000000000000EF
:10011000000000000DAD000800000000000000001D
:1001200029AB0008000000000000000071AB0008CF
:1001300000000000000000000000000000000000BF
:1001400000000000000000000000000000000000AF
:10015000000000000000000000000000000000009F
:10016000000000000000000000000000000000008F
:10017000000000000000000000000000000000007F
:08018000000000000000000077
:1001C0001848016841F470010160BFF34F8FBFF31D
:1001D0006F8F15481549164A914204DA50F8043BCE
:1001E00041F8043BF8E7134813494FF000028842F6
:1001F00002DA40F8042BFAE709F06CFAFEE7FFF7A1
:10020000FEBF09F037BAFFF7FEBFFFF7FEBFFFF7EB
:10021000FEBFFFF7FEBFFFF7FEBFFFF7FEBF09F00F
:1002200021BA000088ED00E088C800080000002026
:10023000B8090020B8090020040C002000B510EE19
:10024000103A204A23F00043934283B019DDB3F102
:10025000FF4F04DB30EE400A03B05DF804FB684654
:1002600000F046FE00F00300012811D002281FD044
:10027000B8B10120DDED010A9DED000A01F03CFB63
:10028000EAE7DFED110A00F083FF03B05DF804FB3D
:10029000DDED010A9DED000A01F02EFBB1EE400AF2
:1002A000DAE7DDED010A9DED000A00F071FFD3E70A
:1002B000DDED010A9DED000A00F06AFFB1EE400A93
:1002C000CAE700BFD80F493F0000000010EE103A07
:1002D00023F0004300EE103A704700BF00B510EE67
:1002E000103A214A23F00043934283B01ADDB3F160
:1002F000FF4F04DB30EE400A03B05DF804FB6846B4
:1003000000F0F6FD00F00300012813D0022820D0F1
:10031000B8B1DDED010A9DED000A00F039FFB1EE44
:10032000400AE9E70020DFED110A01F0E5FA03B029
:100330005DF804FBDDED010A9DED000A00F028FFE9
:10034000DAE70120DDED010A9DED000A01F0D4FAA3
:10035000D2E70120DDED010A9DED000A01F0CCFAA3
:10036000B1EE400AC8E700BFD80F493F00000000C7
:1003700008B52DED028BB0EE408A00F0F5F8134B76
:1003800093F900300133F0EE408A0FD0B4EE488A82
:10039000F1EE10FA0AD6B0EE480AFFF797FFF7EE33
:1003A000007AB4EEE70AF1EE10FA04DCB0EE680A67
:1003B000BDEC028B08BD02F0F5F8BDEC028B2123E9
:1003C00003600348BDE8084001F0FABB00000020CC
:1003D000C8C3000800F0C4B908B52DED048BF0EED9
:1003E000408AB0EE608A00F079FA474B93F900300A
:1003F0000133B0EE409A1FD0B4EE488AF1EE10FA05
:100400001AD6F4EE688AF1EE10FA59D6DFED3F9A6B
:10041000F4EE698AF1EE10FA13D1B4EE698AF1EEC6
:1004200010FA29D0B0EE480A01F07CFB20B1B4EEFE
:10043000E98AF1EE10FA4DD4B0EE490ABDEC048B16
:1004400008BD01F06FFBF0B1B5EE409AF1EE10FA85
:10045000F2D1B0EE680A01F065FB0028ECD0B0EEF6
:10046000480A01F05FFB0028E6D002F09BF8222347
:1004700003609FED269ADFE7B7EE009AB0EE490AD7
:10048000BDEC048B08BDB0EE680A01F04BFB002800
:10049000DAD0B0EE480A01F045FB0028D4D0B4EE23
:1004A000499AF1EE10FA28D602F07CF8F5EEC08AEF
:1004B0002223F1EE10FA036013D49FED159ABBE7E7
:1004C000B5EE408AF1EE10FAF7EE007A08BFB0EE12
:1004D000679AB1E702F066F8212303609FED0D9A59
:1004E000AAE7B0EE480A01F071FBB4EE480AF1EE5B
:1004F00010FAE2D09FED079A9EE702F053F821230D
:1005000089EEA99A036097E7000000200000000030
:100510000000807F000080FF08B52DED028BB0EE5B
:10052000408A00F031FE0E4B93F9003001330BD0BE
:10053000B4EE488AF1EE10FA06D6DFED0A8AB4EE80
:10054000E88AF1EE10FA02D4BDEC028B08BD02F08D
:1005500029F888EEA80ABDEC028B2123036008BDB0
:10056000000000200000000038B510EE105A25F001
:100570000044B4F17E5F2DED048B00F0828079DCC5
:10058000B4F17C5F0EDAB4F1485F80F29680DFED63
:10059000647A70EE277AB7EE007AF4EEC77AF1EE5D
:1005A00010FA64DCFFF792FEF7EE007A37EEC00A2D
:1005B000B6EE008A20EE088A9FED5A3A9FED5A4A1D
:1005C000DFED5A3ADFED5A4A9FED5A5ADFED5A5A9B
:1005D0009FED5A6A9FED5A7ADFED5A6ADFED5A8A2B
:1005E000A8EE034AE8EE234AA4EE085AE4EE885A3D
:1005F000A5EE086AA5EE887AE6EE086AE7EE087AC4
:10060000E6EE888AB0EE480AB0EE679A00F0BCFDCC
:100610004E4B9C4268EE888A40DC10EE103A23F480
:100620007F6323F00F0307EE903AB1EE676AA6EE00
:10063000278A70EE277AC8EE895A88EE275A9FEDEE
:10064000447ADFED447AF0EE006AA5EE667A30EE89
:10065000000AB0EE675AA6EE265A90EE257A37EEDB
:10066000450A37EEC00A002DD8BFB1EE400ABDECF6
:10067000048B38BDBDEC048B70EE407A87EEA70A80
:1006800038BDDFED337A9FED347A60EE277ABDEC2A
:10069000048BE0EE077AB0EE670A38BDC8EE896ACF
:1006A0009FED2E7ADFED2C7AA0EE260AF0EE006A9E
:1006B000A0EE267A37EEC70AD5E760EE007ADFEDC6
:1006C000192ADFED193ADFED1B4A9FED183A9FED2D
:1006D000184ADFED1A6A9FED185ADFED1A5A9FED9E
:1006E000186A9FED197AE7EEA23ABDEC048BE3EEAF
:1006F000A74AA7EE834AE4EEA76AA4EE275AE6EEDD
:10070000A75AA5EE276AA5EEA77AF7EE006AE6EEED
:10071000276A67EE277A87EEA67AA0EE070A38BD29
:10072000CAF2497108EF1138047F4F3A2EC69D3D39
:10073000613330BF461124BD2D570140A80A4E3EFB
:1007400039D119C090B0A6BEABAA2A3E9999793F7B
:100750002EBD3BB3DB0F493FDB0FC93F2EBD3B3303
:1007600010B582B0CDED010A019B23F00042B2F139
:10077000FF4FF0EE407A19DC10EE100A20F0004135
:10078000B1F1FF4F12DCB3F17E5F51D09C1704F042
:10079000020444EAD07479B9022C36D09FED440AA1
:1007A000032C18BFB0EE670A02B010BD9DED017AB0
:1007B00037EE270A02B010BDF2B1B2F1FF4F27D0D9
:1007C000B1F1FF4F52D08A1AD2153C2A35DC002BEA
:1007D00043DA3C3241DA9FED370A012C58D0022C23
:1007E0004DD0002CE6D0DFED347A9FED347A70EEF8
:1007F000277A37EEC70ADDE79FED310ADFED317A60
:100800000028B8BFB0EE670AD4E79FED2C0AD1E705
:10081000B1F1FF4F14D0022CF7D0032C3FD0DFED05
:100820002A7A9FED240A012C08BFB0EE670AC1E7BF
:1008300002B0BDE8104001F0A7B89FED210ACCE757
:10084000022C32D0032C2DD0DFED207A9FED200A30
:10085000012C08BFB0EE670AACE79DED010A87EEF8
:10086000800AFFF733FD01F08FF8B6E7DFED147A69
:100870009FED140A0028A8BFB0EE670A9AE7DFEDE3
:100880000E7A9FED0E7A70EE277A37EE670A91E7BF
:1008900010EE103A03F1004300EE103A8AE79FEDA4
:1008A000040A87E79FED0B0A84E79FED0B0A81E7B7
:1008B000DB0F49C0000000002EBDBB33DB0F4940F9
:1008C000DB0FC93FDB0FC9BF00000080DB0F49BF52
:1008D000DB0F493FE4CB16C0E4CB16402DE9F047CF
:1008E0002DED028B82B0CDED000A009C8DED010A4A
:1008F00034F0004714D0DDF8048028F00046B6F14B
:10090000FF4F07DDBD4802B0BDEC028BBDE8F047EC
:1009100001F056B9B7F1FF4F09DDB6F17E5FF1D1B5
:10092000B7EE000A02B0BDEC028BBDE8F087B8F16B
:10093000000FC0F2F9804FF00009B7F1FF4F00F04F
:100940000681B7F17E5F00F02C81B4F1804F00F09A
:100950004181019DDDF800A0B4F17C5F00EE105AEA
:1009600040F00281B8F1000F80F23981FFF7AEFC50
:10097000B6F1FF4F00F00A81002E00F00381B6F1BE
:100980007E5F00F0F9804FEAD873013B59EA030219
:1009900000F02C81B7F19A4F40F35281984A964269
:1009A00040F36382974A964200F30081F7EE007AA3
:1009B00030EE670ADFED946ADFED947A9FED945A8A
:1009C0009FED946AF1EE405AB5EE007AE5EE876A43
:1009D000B6EE007AA6EEC07A60EE006A27EE267ABE
:1009E00067EEC77AE0EE057AF0EE676AE0EE066A37
:1009F00016EE902A22F47F6222F00F0207EE102AF0
:100A0000A5EE867A06EE902A77EEC77A24F47F6404
:100A100024F00F0407EE10AA06EE104A67EE877A5C
:100A200037EE466A07EE104AE6EE267A09F1FF39FC
:100A300059EA030326EE877AB7EE000A77EE876A53
:100A4000BFEE006A16EE902A0CBFB0EE468AB0EEFA
:100A5000408A002A22F0004340F3BD81B3F1864F63
:100A600000F3FC8100F0EF81B3F17C5F00F3BF8104
:100A70000021084622F47F6323F00F0306EE103AAC
:100A8000DFED656ADFED655A9FED653ADFED653AAA
:100A90009FED652A9FED654ADFED654A9FED655A3A
:100AA00036EE477AF0EE002A77EEC77A26EE267AFF
:100AB000A7EEA57AF7EE005AF0EE477AA6EE037A93
:100AC00067EE076AF0EE471AE6EE431AB0EE636A85
:100AD000A6EE826A77EEE17AA6EE264AE7EE277A5C
:100AE000E4EE264AA4EEA65AB0EE456AB0EE475AA6
:100AF000A6EE665AF0EE456A36EEE26A27EE055A31
:100B0000C5EE066A76EEE77A37EEC77A35EEC70AA3
:100B100010EE103A0B44B3F5000FC0F2BE8100EEA8
:100B2000103A20EE080AFDE6B7F1974F19DAB7F14F
:100B30007E5F09DBFB15C3F1960347FA03F202FA65
:100B400003F3BB4200F042814FF00009F9E6B6F131
:100B50007E5F3FF4E5AE2FDD002C2ADB9DED000A21
:100B6000E0E64FF00209E8E6FFF7B0FBB6F1FF4F11
:100B700002D0002E7FF403AF002CBCBFF7EE007A4A
:100B800087EE800AB8F1000FBFF6CCAEA6F17E5614
:100B900056EA090340F0138170EE407A87EEA70A07
:100BA000C0E6002C0FDB9DED010ABBE6002C00F334
:100BB0005F819FED210AB5E6002CFADADDED007ABF
:100BC000B1EE670AAEE69DED017AF7EE007A87EEA8
:100BD000870AA7E6DDED017A27EEA70AA2E602B0B2
:100BE000BDEC028BBDE8F04700F0CEBA07EE905A9C
:100BF00077EEE77A87EEA70A94E600BFC8C300083D
:100C0000F7FF7F3F0700803FABAAAA3E3BAAB83F51
:100C100070A5EC3600AAB83F8CBEBF351872313FC4
:100C20000072313F0EEADDB54CBB313355B38A3823
:100C3000610B36BBABAA2A3E000000000000804BCF
:100C400018F0FF4F40F0FD805FED047A60EE277AE8
:100C50006FF0170217EE906A9148F115C6F3160669
:100C60007F398642114446F07E5240F3E2808D483F
:100C7000864240F302819FED8C5A0131A2F50002B9
:100C8000F0EE453A0020B7EE006A06EE902A76EEC6
:100C9000867AB7EE007A87EE278A521042F0005229
:100CA00002F58022024436EEC67A07EE902A27EE3D
:100CB000084A77EEC65ADFED7D8A9FED7D0A7D4AB0
:100CC000DFED7D1ADFED7D0A9FED7D1A9FED7D2A18
:100CD000DFED7D2A9FED7D3A24EE046A14EE100AC2
:100CE000A6EE280A104076EEE56AF0EE615A04EEB0
:100CF000900AE0EE065AF1EE641AA1EEA77AF0EE41
:100D0000607AE5EE867AA1EEA67AF0EE415AE7EE39
:100D1000865A67EE086AB0EE427AA5EE867A74EEDD
:100D2000247A26EE066A67EEA67AF0EE085AE6EE18
:100D3000077AB0EE657AA4EEA47A9FED652A37EEC5
:100D4000276A07EE101A16EE101A114006EE101A56
:100D500076EE655AB8EEC77AE1EEA45A77EEE57AF8
:100D600067EE847AE6EE867AF0EE675AE4EE865A0B
:100D700015EE901A114006EE901AE1EE866A05EE25
:100D8000901A77EEE67A67EEA27AE5EE837A77EE4E
:100D9000A37AF0EE676AE5EE826A76EE856A76EE11
:100DA000876A16EE901A114006EE901A36EEC77A50
:100DB00037EE457AA5EEC27A77EEC77A26E6B9F124
:100DC000010F7FF4AFADB1EE400AABE502F00102D6
:100DD000C2F10209B5E53F498B4257DC7FF444AECE
:100DE00076EEC76AF4EEE76AF1EE10FA4EDADB153A
:100DF0004FF400017E3B41FA03F31344C3F3C751A0
:100E0000354C7F390C41C3F3160023EA040306EE88
:100E1000903A37EE667AC1F1170140F400000841BC
:100E2000002A77EE876AB8BF4042C10516EE902AC5
:100E300020E69FED1D5A0020F0EE453AB7EE006A1D
:100E400023E7002208E79FED256A76EEC76A37EEB2
:100E5000866AB4EEE66AF1EE10FAC8DDDFED207ABC
:100E600028EE270A20EE270A5CE5002CBFF6A1AE8B
:100E70009FED1B0A20EE000A54E59FED1A5ADFEDA4
:100E80001A3A4FF40010B7EE086AFEE6DFED177A63
:100E900028EE270A20EE270A44E500F0F3FE40E69C
:100EA00071C41C00D6B35D000000000042F1533E47
:100EB00055326C3E00F0FFFF05A38B3EABAAAA3E65
:100EC000B76DDB3E9A99193F4F38763FA0C39D36E8
:100ED0000038763F00001643FFFF7F003CAA3833FE
:100EE000CAF2497100C0153FDCCFD1356042A20D76
:100EF00070B510EE103A964A23F00044944286B042
:100F0000054668DD934A944210EE106A1ADC002B05
:100F100024F00F04DFED907A904A40F3F28094427F
:100F200070EE677A66D09FED8E7A77EEC76A012001
:100F300077EEE67AC5ED006A77EEC77AC5ED017AFD
:100F400006B070BD874A944267DDB4F1FF4F49DABD
:100F5000E215863AA4EBC25307EE903ABDEEE77A6B
:100F6000DFED816AB8EEC77A77EEC77A8DED037A46
:100F700067EEA67ABDEEE77AB8EEC77A77EEC77A63
:100F80008DED047A67EEA67AF5EE407AF1EE10FA6E
:100F9000CDED057A40F0A280B5EE407AF1EE10FA80
:100FA00014BF02230123714901910221009103A87A
:100FB000294600F06FF9002EC2DA95ED007AD5EDE2
:100FC000017AB1EE477AF1EE677A404285ED007A18
:100FD000C5ED017AB4E7002285ED000A42600020E9
:100FE00006B070BD70EE407A0020C5ED017AC5ED07
:100FF000007AA5E7DFED5E6A9FED5E7A77EEE67A2E
:10100000012077EEC76A77EEE67AC5ED006A77EEE3
:10101000C77AC5ED017A06B070BDFFF757F9DFED6D
:10102000566ADFED4D5A9FED4E7AF6EE007AE0EE0D
:10103000267AFDEEE77A17EE900AF8EEE76A1F28A7
:10104000B1EE666AA6EE250A66EE877A1EDC421EBF
:101050004A4B53F8223024F0FF029A4230EE677A6E
:1010600016D085ED007A30EE470A002E30EE670A82
:1010700085ED010ABFF664AFB1EE477AB1EE400AE2
:1010800085ED007A85ED010A404259E730EE677A36
:1010900017EE103AE415C3F3C753E31A082BE0DD4B
:1010A000DFED337A9FED337AF0EE405AE6EE275AC1
:1010B00030EE650AA6EE270AF0EE407AD6EE877A81
:1010C00035EEE77A17EE103AC3F3C753E41A192C3A
:1010D00006DC85ED007AB0EE650AC4E7032362E71B
:1010E0009FED277A9FED275AB0EE650AA6EE070A14
:1010F00075EEC07AE6EE077AD6EE857A30EE677A3C
:10110000AFE7944270EE277A0ED09FED157A77EE16
:10111000876A4FF0FF3077EEE67AC5ED006A77EE2A
:10112000877AC5ED017A0BE7DFED116A9FED117A41
:1011300077EEA67A4FF0FF3077EE876A77EEE67AA1
:10114000C5ED006A77EE877AC5ED017AF8E600BF53
:10115000D80F493FE3CB1640800FC93FD00FC93F9E
:1011600043443537800F494300008043D4BC000816
:101170000044353708A3852E84F9223F54BC00086B
:1011800000A3852E32318D24B1EEC00A704700BF16
:1011900010EE103A23F00043B3F1485F2CDAFDEE75
:1011A000C07A17EE903A002B60D020EE007ADFED87
:1011B000314A9FED315ADFED315A9FED316ADFED53
:1011C000317ADFED316AA7EE245AE7EE055AA7EE31
:1011D000256AE7EE067AE7EE276A66EE876A60EE32
:1011E000C00AB6EE006AE7EE260AF7EE007AD7EEFE
:1011F000060A37EEE00A704720EE007ADFED1D4A5E
:101200009FED1D5ADFED1D5A9FED1D6ADFED1D7A22
:10121000DFED1D6A1D4AA7EE245A9342E5EE075AF8
:10122000A5EE876AE6EE077AE7EE876A66EE876ADA
:10123000D5DD174A934214DC03F17F4307EE903A61
:10124000B7EE006A36EE676A60EEC00AF6EE005A44
:10125000E7EE260AD7EE257A77EEE07A36EE670AD1
:101260007047B6EE076AF5EE027AEDE7B7EE000AD0
:10127000704700BF4ED747ADF6740F317CF293B480
:10128000010DD037610BB6BAABAA2A3D9999993EA8
:101290000000483F2DE9F04F2DED048BDBB0D64C1C
:1012A000689D0791111D54F82550049309928146B9
:1012B00003F1FF38C0F25782D31E44BF13460433F4
:1012C000DB1003930133DB000893DDE908239B1A4D
:1012D0000693039B15EB0801A3EB080316D4013119
:1012E0009FEDC67A699819441EAA002BA4BF50F836
:1012F000234007EE904A03F10103ACBFF8EEE77A12
:10130000F0EE477A8B42E2EC017AEED1049B002D9D
:101310004FEA830C4FEA850A1DDB1EAB03EB0C047E
:1013200047AB09EB0C0103EB0A0646A8B8F1000F26
:10133000DFEDB27A09DB22464B46F3EC016A32ED6F
:10134000017A8B42E6EE877AF7D1E0EC017AB0427F
:1013500004F10404EAD1AAF108030AAFFB180593CB
:10136000AB4609AB01959FEDA79ADFEDA58A069DD7
:1013700009EB0C049A4446AE4FEA8B015AAB0B447E
:10138000BBF1000F13ED140A16DD06EB8B033A4692
:1013900060EE097AB0EE407AFDEEE77A73ED016A0D
:1013A000F8EEE77AB342A7EEE87A37EEA60ABDEE8A
:1013B000C77AA2EC017AEBD12846029100F062FCD8
:1013C000B0EE408AB4EE000A28EE000A00F0B4FB4A
:1013D000F2EE007AA0EE678A002D0299FDEEC89A1F
:1013E000F8EEE97A38EE678A75DD0BF1FF3CC5F15E
:1013F000080357F82C2042FA03F000FA03F3D31A3B
:1014000047F82C30C5F1070219EE90CA43FA02F2F0
:101410008444002A09EE90CA66DCB5EE408AF1EEFB
:1014200010FA40F0A380019B0BF1FF3C63450EDCFA
:101430000BF18041013907EB8101002051F804399B
:10144000514540EA0300F9D1002840F0EE80019BAD
:10145000013B57F82330002B40F0E280059B012030
:1014600053F804290130002AFAD00BF10103584443
:101470009C46039A03EB020E049A1EA95A440EF1ED
:10148000804E01EB820269990EF1FF3E01EB8E0E58
:1014900006EB830B5EF8043F9FED587A07EE903A17
:1014A000F8EEE77A1146B8F1000FE1EC017A09DBBA
:1014B0004B4601E072ED017AF3EC016AA342A6EE1D
:1014C000A77AF7D10CF1010C8445ABEC017A0A46FE
:1014D000E0DD834650E740F099800BF1FF3357F889
:1014E00023201212002A98DD19EE903ABBF1000F6A
:1014F00003F1010309EE903A40F3C48138680028F3
:1015000061D1BBF1010F0BD0BE464FF0010C5EF86C
:10151000040F0CF10103002858D19B459C46F6D1DD
:10152000002D0CDD012D00F01581022D07D10BF1EE
:10153000FF3157F8213003F03F0347F82130022AEA
:101540007FF46BAFB7EE000A30EE488A00283FF414
:1015500064AF2846029200F095FB38EE408A029A6A
:10156000B5EE408AF1EE10FA3FF45DAF9046DDE94A
:101570000832B0EE480A981A019D00F083FB9FEDF7
:10158000207AB4EEC70AF1EE10FAC0F27D81DFEDE9
:101590001D7A069B60EE277A0833FDEEE77A069304
:1015A000F8EEE77A0BF10103A7EEC70AFDEEE77A42
:1015B000BDEEC00A10EE102A47F82B2017EE902A35
:1015C00047F8232046E001234FF0000CC0F580705F
:1015D0009B4547F82C000CDD57F82300394407EBF6
:1015E000830300E01868C0F1FF0043F8040B8B424E
:1015F000F8D1012094E700BFECBF00080000000014
:10160000000080430000803B0000C93FF6EE007AF6
:10161000B4EEE78AF1EE10FA80F2AA800022FCE62E
:101620000BF101039C46184623E70699019D90465D
:1016300057F82C200839634606915AB90BF18042BD
:10164000023A07EB820252F80409013B08390028EC
:10165000F9D0069106980193B7EE000A00F012FB4C
:10166000019B002BC0F22F819E0046AA06F1040CBC
:101670001FED1C7A1644311D07EB0C0272ED017A46
:10168000F8EEE77ABA4267EE807A20EE070A61ED5B
:10169000017AF3D10DF1C80E002D77464FF000040A
:1016A0001FED276A1DDB9248DFED927A3146B0EEDE
:1016B000467A002203E0A24208DCB0EC017AF1ECA9
:1016C000016A01329542E6EE877AF4DA9C42E7EC51
:1016D000017AA6F1040604F101020CD0002D144693
:1016E000E1DADFED847A9C42E7EC017AA6F10406A8
:1016F00004F10102F2D1689A032A22D8DFE802F04D
:10170000B19F9F4ADFED7B7A9DED327A424637EEFC
:10171000677A002A40F0C080079A002BC2ED007A59
:101720000CDD33A90122F1EC017A0132934237EE4C
:10173000277AF8DA43460BB1B1EE477A079B83ED7F
:10174000017A19EE903A03F007005BB0BDEC048B10
:10175000BDE8F08F0BF1FF3157F8213003F07F0324
:1017600047F82130EBE60823089300230393ACE508
:1017700019EE903ABBF1000F03F1010309EE903A24
:10178000C8BF02223FF7BAAEF7EE007A37EEC88A3A
:10179000022242E6002B40F3A88099005AAA0A448C
:1017A0000DF1C80E52ED286A0EEB830272ED017A3C
:1017B00037EEA67A964577EEC77A82ED007A77EE15
:1017C000A67AF0EE476AC2ED017AEFD1012B40F321
:1017D0008C8003F18043013B5AAA9B0011441A1DDF
:1017E00051ED286A724433A972ED017A37EEA67A78
:1017F000914277EEC77A82ED007A77EEA67AF0EE24
:10180000476AC2ED017AEFD10833DFED3A7A7344CB
:101810000EF1080E33ED017A9E4577EE877AF9D105
:101820004346DDED326A9DED337A002B3DD1079BB7
:10183000C3ED006A83ED017AC3ED027A81E7DFED43
:101840002D7AF4443CED017AE64577EE877AF9D1BA
:101850009DED327A424637EE677A002A3FF45CAF5C
:101860001AE0DFED247AF4443CED017AE64577EEA8
:10187000877AF9D143460BB1F1EE677A079BC3ED46
:10188000007A5EE700204BE6BDEEC00A5B4610EE34
:10189000102A47F82B20DDE6079AF1EE677A002B35
:1018A000C2ED007A3FF73DAF46E7079BF1EE666A6F
:1018B000B1EE477AF1EE677AC3ED006A83ED017A03
:1018C000C3ED027A3DE7689A032A3FF63AAF01A1D9
:1018D00051F822F0E5180008051700080517000860
:1018E00095170008DFED037AC4E7DFED027A97E78A
:1018F000FCBF00080000000010EE103A23F0004387
:10190000B3F1485F04DAFDEEC07A17EE903A5BB3AC
:1019100060EE007A9FED155ADFED155A9FED156ABE
:10192000DFED156A9FED157AE7EE855A20EE275A0E
:10193000A5EEA76AE6EE276AA6EEA77A30B9DFED34
:10194000106AE7EE876AA6EE850A704727EE457AA9
:10195000F6EE006AA0EEA67ADFED0A6AD7EE270A55
:10196000E5EE260A30EE600A704700BFD3C92E2F7D
:10197000342FD7B21BEF3836010D50B98988083C97
:10198000ABAA2ABEABAA2A3E38B510EE105A25F0F3
:101990000044B4F1A14FF0EE407A0BDBB4F1FF4FFD
:1019A00056DCDFED4E7A9FED4E0A002DC8BFB0EE3B
:1019B000670A38BD4B4B9C425CDCB4F1445F4ADBA8
:1019C0004FF0FF3267EEA76ADFED471ADFED472AD7
:1019D0009FED472A9FED473ADFED473A9FED474A93
:1019E000DFED474A9FED475ADFED475A9FED470A23
:1019F0009FED476A26EEA67A531CE7EE212AA7EE52
:101A0000023AE2EE873AA3EE074AE3EE874AA4EEF3
:101A1000075AE4EE875AA5EE070AA5EE876A20EE7C
:101A2000070AA6EE260A20EE270A20D0394B03EB40
:101A30008203D3ED046A93ED007A30EE660A002D3E
:101A400070EE677A37EE670AB3DAB1EE400A38BD56
:101A500030EE000A38BD9FED307A30EE077AF7EEAF
:101A6000006AB4EEE67AF1EE10FAA9DD38BD37EE81
:101A7000C00A38BDFEF72AFC284B9C420FDCA3F5B8
:101A8000D0039C4220DCF0EE007ABFEE007AA0EE9C
:101A9000277A002230EE270AC7EE007A92E7204B21
:101AA0009C420BDCF7EE087AB7EE007AA0EE277ABC
:101AB000022230EE670AC0EE077A83E7BFEE007AB3
:101AC000C7EE007A03227DE7F7EE007A30EE677A00
:101AD00030EE270A0122C7EE007A73E7DB0FC93F19
:101AE000DB0FC9BFFFFFDF3ED769853C59DA4B3DAD
:101AF00021A215BD6BF16EBD356B883D95879DBDEF
:101B00006E2EBA3D388EE3BD2549123ECDCC4CBE7B
:101B1000ABAAAA3E24C00008CAF24971FFFF973F52
:101B2000FFFF1B4010EE103A23F00040B0F1FF4FD2
:101B3000ACBF00200120704710EE102A22F00041B7
:101B4000CB0D7F3B162B28DC002B18DB19491941E4
:101B50000A4221D0DFED187A70EE277AF5EEC07ACE
:101B6000F1EE10FA18DD002A04DA4FF4000040FA12
:101B700003F31A4422EA010300EE103A7047DFED46
:101B80000E7A70EE277AF5EEC07AF1EE10FA03DDE8
:101B9000002A08DB9FED090A7047B1F1FF4FFBD324
:101BA00030EE000A70470029FFEE007A18BFB0EE51
:101BB000670A7047FFFF7F00CAF24971000000000A
:101BC0009FED010A704700BF0000C07F10EE101AA1
:101BD00021F00040C30DA3F17F02162A27DC28B3B1
:101BE00010B4002A83B04FEAD17426DB234B134193
:101BF000194217D05808014207D04FF4001321EAC8
:101C0000000113410B4300EE103A1D4B03EB84041B
:101C1000D4ED007A37EE800A8DED010A9DED010AC0
:101C200030EE670A03B05DF8044B70477047B0F1BF
:101C3000FF4FFBD330EE000A7047C1F316035B423F
:101C40000F4A5B0A090D03F480030905194302EBEF
:101C50008402D2ED006A07EE901A36EEA77A8DED77
:101C6000017ADDED017A77EEE67A17EE903A23F00D
:101C7000004343EAC47300EE103AD3E7FFFF7F004E
:101C800044C0000882B08DED010A019B33F0004290
:101C90002AD0B2F1FF4F23D213F0FF4F28D19DED90
:101CA000017ADFED2A7A2A4B67EE277A9842CDED4A
:101CB000017A37DB019BC3F3C752193A0244FE2A6B
:101CC0001ADD9FED240A9FED247A019B002BF0EE94
:101CD000407AB8BFB0EE470A20EE270A02B070473C
:101CE00030EE000A02B070479DED010A02B0704765
:101CF000D20D0244FE2AE4DC002A0BDC12F1160F9E
:101D000017DA4CF250339842DBDC9FED140A9FED5A
:101D1000147ADAE723F0FF4343EAC25300EE103AA5
:101D200002B070479FED0D0ADDED017A27EE800AC3
:101D3000D8E7193223F0FF4343EAC253DFED097AB3
:101D400007EE103A27EE270ACCE700BF0000004C50
:101D5000B03CFFFFCAF24971CAF249F16042A20DDC
:101D60006042A28D0000003381F0004102E000BF1C
:101D700083F0004330B54FEA41044FEA430594EA4B
:101D8000050F08BF90EA020F1FBF54EA000C55EA86
:101D9000020C7FEA645C7FEA655C00F0E2804FEA57
:101DA0005454D4EB5555B8BF6D420CDD2C4480EA39
:101DB000020281EA030382EA000083EA010180EA69
:101DC000020281EA0303362D88BF30BD11F0004FB7
:101DD0004FEA01314FF4801C4CEA113102D04042ED
:101DE00061EB410113F0004F4FEA03334CEA133328
:101DF00002D0524263EB430394EA050F00F0A78040
:101E0000A4F10104D5F1200E0DDB02FA0EFC22FA3A
:101E100005F2801841F1000103FA0EF2801843FA2E
:101E200005F359410EE0A5F120050EF1200E012A1F
:101E300003FA0EFC28BF4CF0020C43FA05F3C0185D
:101E400051EBE37101F0004507D54FF0000EDCF1D6
:101E5000000C7EEB00006EEB0101B1F5801F1BD37F
:101E6000B1F5001F0CD349085FEA30004FEA3C0C83
:101E700004F101044FEA445212F5800F80F09A8079
:101E8000BCF1004F08BF5FEA500C50F1000041EB7D
:101E9000045141EA050130BD5FEA4C0C404141EB81
:101EA0000101013C28BFB1F5801FE9D291F0000F7C
:101EB00004BF01460020B1FA81F308BF2033A3F12B
:101EC0000B03B3F120020CDA0C3208DD02F1140C22
:101ED000C2F10C0201FA0CF021FA02F10CE002F15D
:101EE0001402D8BFC2F1200C01FA02F120FA0CFC56
:101EF000DCBF41EA0C019040E41AA2BF01EB04519F
:101F0000294330BD6FEA04041F3C1CDA0C340EDC9C
:101F100004F11404C4F1200220FA04F001FA02F3DF
:101F200040EA030021FA04F345EA030130BDC4F19D
:101F30000C04C4F1200220FA02F001FA04F340EA92
:101F40000300294630BD21FA04F0294630BD94F043
:101F5000000F83F4801306BF81F480110134013D2A
:101F60004EE77FEA645C18BF7FEA655C29D094EA9B
:101F7000050F08BF90EA020F05D054EA000C04BF19
:101F80001946104630BD91EA030F1EBF0021002004
:101F900030BD5FEA545C05D14000494128BF41F0A3
:101FA000004130BD14F580043CBF01F5801130BD07
:101FB00001F0004545F0FE4141F470014FF0000092
:101FC00030BD7FEA645C1ABF194610467FEA655C43
:101FD0001CBF0B46024650EA013406BF52EA0335E5
:101FE00091EA030F41F4002130BD00BF90F0000FD3
:101FF00004BF0021704730B54FF4806404F132040F
:102000004FF000054FF0000150E700BF90F0000FC7
:1020100004BF0021704730B54FF4806404F13204EE
:1020200010F0004548BF40424FF000013EE700BFBE
:1020300042004FEAE2014FEA31014FEA02701FBF4E
:1020400012F07F4393F07F4F81F06051704732F080
:102050007F4208BF704793F07F4F04BF41F40021D7
:10206000704730B54FF4607401F0004521F0004135
:102070001CE700BF50EA010208BF704730B54FF0BF
:1020800000050AE050EA010208BF704730B511F0C0
:10209000004502D5404261EB41014FF4806404F1F8
:1020A00032045FEA915C3FF4D8AE4FF003025FEA7E
:1020B000DC0C18BF03325FEADC0C18BF033202EB02
:1020C000DC02C2F1200300FA03FC20FA02F001FA5C
:1020D00003FE40EA0E0021FA02F11444BDE600BFFF
:1020E00070B54FF0FF0C4CF4E06C1CEA11541DBFAE
:1020F0001CEA135594EA0C0F95EA0C0F00F0DEF879
:102100002C4481EA030621EA4C5123EA4C5350EA5D
:10211000013518BF52EA033541F4801143F48013AE
:1021200038D0A0FB02CE4FF00005E1FB02E506F03F
:102130000042E0FB03E54FF00006E1FB03569CF094
:10214000000F18BF4EF0010EA4F1FF04B6F5007F9A
:1021500064F5407404D25FEA4E0E6D4146EB06060C
:1021600042EAC62141EA55514FEAC52040EA5E5095
:102170004FEACE2EB4F1FD0C88BFBCF5E06F1ED83F
:10218000BEF1004F08BF5FEA500E50F1000041EB76
:10219000045170BD06F0004646EA010140EA020023
:1021A00081EA0301B4EB5C04C2BFD4EB0C0541EA45
:1021B000045170BD41F480114FF0000E013C00F35A
:1021C000AB8014F1360FDEBF002001F0004170BD7E
:1021D000C4F10004203C35DA0C341BDC04F1140497
:1021E000C4F1200500FA05F320FA04F001FA05F223
:1021F00040EA020001F0004221F0004110EBD370F0
:1022000021FA04F642EB06015EEA430E08BF20EA1B
:10221000D37070BDC4F10C04C4F1200500FA04F3BE
:1022200020FA05F001FA04F240EA020001F0004150
:1022300010EBD37041F100015EEA430E08BF20EAC3
:10224000D37070BDC4F1200500FA05F24EEA020E0B
:1022500020FA04F301FA05F243EA020321FA04F03A
:1022600001F0004121FA04F220EA020000EBD370F1
:102270005EEA430E08BF20EAD37070BD94F0000FF1
:102280000FD101F00046400041EB010111F4801F25
:1022900008BF013CF7D041EA060195F0000F18BFD6
:1022A000704703F00046520043EB030313F4801F12
:1022B00008BF013DF7D043EA0603704794EA0C0FCC
:1022C0000CEA135518BF95EA0C0F0CD050EA4106E2
:1022D00018BF52EA4306D1D181EA030101F000415F
:1022E0004FF0000070BD50EA410606BF1046194687
:1022F00052EA430619D094EA0C0F02D150EA013693
:1023000013D195EA0C0F05D152EA03361CBF1046D3
:1023100019460AD181EA030101F0004141F0FE4172
:1023200041F470014FF0000070BD41F0FE4141F4F6
:10233000780170BD70B54FF0FF0C4CF4E06C1CEAF6
:1023400011541DBF1CEA135594EA0C0F95EA0C0FAB
:1023500000F0A7F8A4EB050481EA030E52EA033566
:102360004FEA013100F088804FEA03334FF0805587
:1023700045EA131343EA12634FEA022245EA1115B4
:1023800045EA10654FEA00260EF000419D4208BF65
:10239000964244F1FD0404F5407402D25B084FEA12
:1023A0003202B61A65EB03055B084FEA32024FF4BE
:1023B00080104FF4002CB6EB020E75EB030E22BF1B
:1023C000B61A754640EA0C005B084FEA3202B6EBDB
:1023D000020E75EB030E22BFB61A754640EA5C008A
:1023E0005B084FEA3202B6EB020E75EB030E22BF1A
:1023F000B61A754640EA9C005B084FEA3202B6EB1B
:10240000020E75EB030E22BFB61A754640EADC00D9
:1024100055EA060E18D04FEA051545EA16754FEA3B
:1024200006164FEAC30343EA52734FEAC2025FEA59
:102430001C1CC0D111F4801F0BD141EA00014FF0E8
:1024400000004FF0004CB6E711F4801F04BF0143B9
:102450000020B4F1FD0C88BFBCF5E06F3FF6AFAED5
:10246000B5EB030C04BFB6EB020C5FEA500C50F165
:10247000000041EB045170BD0EF0004E4EEA1131E8
:1024800014EB5C04C2BFD4EB0C0541EA045170BDEF
:1024900041F480114FF0000E013C90E645EA060E33
:1024A0008DE60CEA135594EA0C0F08BF95EA0C0F61
:1024B0003FF43BAF94EA0C0F0AD150EA01347FF4A9
:1024C00034AF95EA0C0F7FF425AF104619462CE780
:1024D00095EA0C0F06D152EA03353FF4FDAE1046E3
:1024E000194622E750EA410618BF52EA43067FF434
:1024F000C5AE50EA41047FF40DAF52EA43057FF4C4
:10250000EBAE12E74FEA4102B2F1E04324BFB3F56C
:10251000001CDCF1FE5C0DD901F0004C4FEAC0025A
:102520004CEA5070B2F1004F40EB830008BF20F03E
:102530000100704711F0804F21D113F13872BCBFF8
:1025400001F00040704741F480114FEA5252C2F14D
:102550001802C2F1200C10FA0CF320FA02F018BF96
:1025600040F001004FEAC1234FEAD32303FA0CFCE9
:1025700040EA0C0023FA02F34FEA4303CCE77FEA78
:10258000625307D150EA01331EBF4FF0FE4040F4C2
:102590004000704701F0004040F0FE4040F4000071
:1025A000704700BF014B1868704700BF080000204B
:1025B000844641EA000313F003036DD1403A41D34E
:1025C00051F8043B40F8043B51F8043B40F8043B0D
:1025D00051F8043B40F8043B51F8043B40F8043BFD
:1025E00051F8043B40F8043B51F8043B40F8043BED
:1025F00051F8043B40F8043B51F8043B40F8043BDD
:1026000051F8043B40F8043B51F8043B40F8043BCC
:1026100051F8043B40F8043B51F8043B40F8043BBC
:1026200051F8043B40F8043B51F8043B40F8043BAC
:1026300051F8043B40F8043B51F8043B40F8043B9C
:10264000403ABDD2303211D351F8043B40F8043B3C
:1026500051F8043B40F8043B51F8043B40F8043B7C
:1026600051F8043B40F8043B103AEDD20C3205D34C
:1026700051F8043B40F8043B043AF9D2043208D044
:10268000D2071CBF11F8013B00F8013B01D30B88B6
:1026900003806046704700BF082A13D38B078DD094
:1026A00010F003038AD0C3F10403D21ADB071CBF66
:1026B00011F8013B00F8013B80D331F8023B20F8D0
:1026C000023B7BE7043AD9D3013A11F8013B00F809
:1026D000013BF9D20B7803704B7843708B78837091
:1026E00060467047F0B4860746D0541E002A3CD09E
:1026F000CAB2034602E014F1FF3436D303F8012BCB
:102700009D07F8D1032C29D9CDB245EA05250F2C18
:1027100045EA054533D9A4F11006360903F120072F
:1027200007EB061703F1100242E9045542E902558E
:102730001032BA42F8D1721C14F00C0F03EB0212E3
:1027400004F00F0613D0331F23F0030304331344A4
:1027500042F8045B9342FBD106F003042CB1C9B2EA
:102760001C4403F8011B9C42FBD1F0BC704734466B
:102770001346002CF3D1F8E714460346C2E71A4685
:102780002646E0E700000000000000000000000016
:102790000000000000000000000000000000000039
:1027A000A2EB0300704700BF02780B78012A28BF14
:1027B0009A42F5D16DE9044540EA0104CDE902678A
:1027C0006FF0000C4FEA447212B380EA010414F077
:1027D000070F6AD100F0070420F0070004F003059A
:1027E00021F007014FEAC505F0E8042314F0040FB7
:1027F000F1E804670CFA05F462EA040266EA0406EA
:102800000AD063EA0403624667EA0407664603E007
:10281000F0E80423F1E8046782FA4CF582EA060442
:10282000A4FA8CF46CBB83FA4CF583EA0705A5FA8D
:102830008CF595B950E9022351E9026782FA4CF50B
:1028400082EA0604A4FA8CF483FA4CF583EA0705BD
:10285000A5FA8CF52543DBD09CB92DBAB5FA85F4E1
:1028600024F0070427FA04F1DDE9026723FA04F3F0
:1028700003F0FF0001F0FF01FDE80445A0EB0100BB
:10288000704724BAB4FA84F424F0070426FA04F159
:10289000DDE9026722FA04F202F0FF0001F0FF0115
:1028A000FDE80445A0EB0100704714F0030F3CD194
:1028B00010F0030428D150F8082B51F8083B82FA95
:1028C0004CF582EA0305A5FA8CF55DB950F8042CA5
:1028D00051F8043C82FA4CF582EA0305A5FA8CF51E
:1028E000002DE8D02DBAB5FA85F424F0070423FAB8
:1028F00004F122FA04F202F0FF0001F0FF01FDE80A
:102900000445A0EB010070474FEAC40420F0030027
:1029100050F8082B21F0030151F8083B0CFA04F49D
:1029200062EA040263EA0403C9E710F003041AD060
:10293000A1EB040120F00300E40750F8042B06D0BB
:102940000FD28B785FFAA2F4E41A06D12BB1CB78C0
:102950005FFAB2F4E41A00D11BB920465DF8104BBF
:10296000704701F1040150F8042BCC0721F003015A
:1029700051F8043B48D824D222F07F4482FA4CF527
:1029800094EA1325A5FA8CF50AD165B951F8043BF0
:1029900084EA0204B4EB036F0ED150F8042BEBE78A
:1029A0004FEA132355E035F07F454DD10878FDE817
:1029B0000445C0F1000070474FEA126203F0FF03C4
:1029C00047E002EA1C4482FA4CF594EA1345A5FA62
:1029D0008CF50AD165B951F8043B84EA0204B4EBE2
:1029E000034F0CD150F8042BEBE74FEA134330E0D0
:1029F00015EA1C4528D10B884FEA124229E04FEA1C
:102A0000124203EA1C4324E002F0FF0482FA4CF570
:102A100094EA1365A5FA8CF50AD165B951F8043B1F
:102A200084EA0204B4EB032F09D150F8042BEBE73E
:102A30004FEA13630DE015F0FF0F05D10B684FEA65
:102A4000122223F07F4304E04FF00000FDE804452C
:102A5000704712BA1BBA82FA4CF482EA0304A4FA51
:102A60008CF5B5FA85F402FA04F203FA04F34FEA9E
:102A70001260FDE80445A0EB1360704770B5141EAA
:102A80009AB005462BDB1A464FF40273009104916D
:102A9000ADF80C3013D0013C4FF6FF761E9B02942C
:102AA00069460594ADF80E6000F02EF8421C01DA7C
:102AB0008B232B60009B00221A701AB070BD1E9BE6
:102AC00002944FF6FF7669460594ADF80E6000F06B
:102AD0001BF8431C01DA8B232B601AB070BD8B23CB
:102AE00003604FF0FF30F8E710B5054C82B000935B
:102AF00013460A4601462068FFF7C0FF02B010BD2A
:102B000008000020000000002DE9F04FBFB00C4687
:102B100007919246CDE9080302F024FA0368119365
:102B2000184603F02DFAA3890F901D0603D52369DB
:102B3000002B00F02D879FEDAC7B00238DED0C7BEF
:102B40000E93CDE922331093129304932EAB21936D
:102B500099469AF80030002B00F0C180252B00F038
:102B60006586554603E0252B00F0AB8025466B7843
:102B70006C1C002BF7D1B4EB0A0600F0B080DDE945
:102B8000223201333244072BC9F800A0C9F804608F
:102B9000CDE9223200F39A8009F10809049A6B7892
:102BA00032440492002B00F09A80002367788DF85D
:102BB00067301A46194605939B4604F1010A4FF007
:102BC000FF360AF1010AA7F12003582B00F2D48244
:102BD000DFE813F0E000D202D202DB00D202D20220
:102BE000D202D202D202D202D000CB00D202C60060
:102BF000AD00D202A80099009900990099009900AF
:102C00009900990099009900D202D202D202D20210
:102C1000D202D202D202D202D202D20299025802C7
:102C2000D2025802D202D202D202D2025302D202FD
:102C3000D2026800D202D202D202D202D2025900DB
:102C4000D202D2023B02D202D202D202D202D2027B
:102C5000D202D202D202D202D202C001960158029E
:102C60005802580291019601D202D2028401D20286
:102C70006E016A003F013A01D2021001D2025B00EC
:102C8000D202D202E8004BF0100B1BF0200F00F034
:102C90005E82099C073424F00703F3E80245099398
:102CA0000123E6E04BF0100B1BF0200300F04582FF
:102CB000099C073424F00703F3E802450993002335
:102CC000D7E0B4EB0A063FF470AF58E721AADDE97C
:102CD000071003F0C3F948B90DF1B8095EE7239B6B
:102CE00023B10898079921AA03F0B8F9079B9B899B
:102CF00013F0400F049B18BF4FF0FF330493049868
:102D00003FB0BDE8F08FA7F1300300201AF8017B37
:102D100000EB800003EB4000A7F13003092BF5D94D
:102D2000059050E74BF0800B9AF8007049E7504649
:102D300010F8017B2A2F01F01881A7F13003092B2D
:102D400082464FF000063FF63EAF1AF8017B06EBD5
:102D5000860603EB4606A7F13003092BF5D932E7C7
:102D60009AF800704BF0040B2BE79AF800700122E0
:102D70002B2126E7099B9AF8007053F8040B059065
:102D80000028C0F2F48509931BE74BF0010B9AF879
:102D9000007016E79AF8007000297FF412AF012244
:102DA00020210EE7002A41F08680114B10931BF082
:102DB000200F00F05381099C073424F00703F3E847
:102DC000024509931BF0010F00F0E78154EA050367
:102DD00000F0E38130238DF868308DF869704BF096
:102DE000020B022345E000BF0000000000000000CD
:102DF00084C70008099C54F8043B0A9300258DF809
:102E00006750002B00F09786711C00F0FC8532465D
:102E100029460A9802F064FB002801F01E800A9BF4
:102E2000C31A06932E4623EAE3739DF8678009943C
:102E3000CDF808B003930B96B8F1000F00F09C801A
:102E4000039B0133039397E04BF0200B9AF800703B
:102E5000B7E6099C54F8043B099447F630021C4637
:102E6000C04B1093ADF868204BF0020B00250223F5
:102E700078274FF000088DF86780721C00F0918170
:102E80002BF08002029254EA050240F08881002E65
:102E900040F08D83002B58D11BF00103069300F006
:102EA000E08430238DF8B7300DF1B7030A939EE329
:102EB000002A40F0FC87099A1BF0200F52F8043BCF
:102EC000099240F0D1841BF0100F40F0A4851BF054
:102ED000400F00F0A085049A1A803AE69AF8007034
:102EE0006C2F03BF9AF801704BF0200B0AF1010A16
:102EF0004BF0100B65E64BF0400B9AF8007060E663
:102F0000002A40F0D0871BF0200F00F00581099CBB
:102F1000073424F007031946F1E802230991144607
:102F20001D46002A73F10003C0F27384731C9DF8E0
:102F3000678000F066832BF08003029354EA050358
:102F400040F05D83002E40F0488700262EAB0696A9
:102F50000A934CE3099C002354F8042B8DF890202D
:102F60008DF86730012224AB0392099406920A93EC
:102F70000026CDF808B00B96029B13F0020302D096
:102F8000039A02320392029A239C12F0840B05D119
:102F9000059A0399551A002D00F375829DF8672054
:102FA00072B1229A013201340DF167000121072A22
:102FB000CDE92224C9E9000100F3A08209F1080942
:102FC0006BB1229B013302341AA90222072BCDE9EF
:102FD0002234C9E9001200F39F8209F10809BBF10C
:102FE000800F00F06A81069BF61A002E00F3AC8178
:102FF000029BDE0500F10281229B0A9AC9F800209B
:10300000069AC9F8042001331444072B2394229311
:1030100000F32D8209F10809029B5A0705D5059B8B
:10302000039A9D1A002D00F38382DDE9043203998F
:103030008A42ACBF9B185B180493002C40F0BD8102
:10304000002322930DF1B80983E5002A40F0108790
:10305000454B10931BF0200F7FF4ADAE099B1BF086
:10306000100F53F8044B099340F0DD831BF0400F21
:1030700000F0D983A4B20025A4E64BF0080B9AF81F
:1030800000709EE5002A40F0F786099C073424F082
:103090000703B3EC027B55EC174B099325F0004373
:1030A00015938DED147ADDE914014FF0FF322F4BAB
:1030B0008DED0C7B06F050F8002840F0F1834FF0C6
:1030C000FF322A4BDDE9140106F028F8002840F011
:1030D000E783002200232046294606F015F8002841
:1030E00040F013869DF86780214A224B0321002679
:1030F0002BF08000472FC8BF1A46039102900A9216
:1031000006910B9698E6002A40F0D9864BF0100BFA
:103110001BF0200F7FF4FBAE099B1BF0100F53F840
:10312000044B099340F06D831BF0400F00F069835E
:1031300024B2E51722462B46F3E6099A52F8044BCF
:1031400009921BF0100200F09E83002591E6099B76
:103150001BF0100F53F8044B099300F08C830025EB
:10316000012386E684C7000870C70008FFFFEF7FD1
:1031700060C7000864C70008002A40F0EF85002FF0
:103180003FF4ADAD002301228DF8673024AB0392EC
:103190008DF8907006920A93EAE6022369E6DDF85C
:1031A00008B0012B00F02D82022B00F008822EA91E
:1031B00000E01146E20842EA4572E80804F007031D
:1031C00005461446303354EA050001F8013C01F18C
:1031D000FF32EED11BF0010F0A9200F0C382302BB8
:1031E00000F0E5830A9ACDF808B03023023902F8DE
:1031F000013C2EAB5B1A06930A91F8E1652F40F370
:10320000E58000220023DDE90C0105F073FF0028B2
:1032100000F00782229BCA4AC9F80020013301341A
:103220000122072BCDE92234C9F8042000F35D8484
:1032300009F108091B9B0E9A239C934203DB029B16
:10324000DD077FF5E9AE229B119AC9F800200F9A9D
:10325000C9F8042001331444072BCDE9223400F3CC
:103260005D8409F108090E9B5D1E002D7FF7D4AE29
:10327000102D229ADFF8D0B240F32D841026DDE91C
:10328000078705E009F10809103D102D40F323845C
:1032900001321034072ACDE92224C9E900B6F1DD54
:1032A00021AA4146384602F0D9FE00287FF41EAD1F
:1032B000DDE922240DF1B809E6E7059B039A9D1A82
:1032C000002D7FF790AE102D229ADFF87CB22BDD17
:1032D00058464B462146B146BB464FF01008DDE943
:1032E0000764074604E0103D102D03F1080315DDC7
:1032F00001321031072ACDE92221C3E90078F2DD3D
:1033000021AA3146204602F0A9FE00287FF4EEAC47
:10331000103D102DDDE922212EABE9DC4E46994609
:103320003B460C465F469B4601322C44072ACDE9BA
:103330002224C9E900B500F3E483069BF61A002EA7
:1033400009F108097FF754AE102E229ADFF8F8B180
:1033500027DD59462346BB461025DDE907480F46C1
:1033600004E0103E102E09F1080916DD0132103379
:10337000072ACDE92223C9E90075F2DD21AA2146F9
:10338000404602F06BFE00287FF4B0AC103E102ED9
:10339000DDE922230DF1B809E8DC1C463B465F4617
:1033A0009B4601323444072ACDE92224C9E900B6FC
:1033B00000F31A8209F108091AE621AADDE90710CB
:1033C00002F04CFE00283FF43BAE8FE40E9A229BA5
:1033D000012A04F1010403F1010509F1080640F393
:1033E000C78101230A9AC9F80020072DCDE922548C
:1033F000C9F8043000F31D820F9B119A01351C445B
:10340000072DCDE92254C6E9002300F31E820836B9
:103410006B1C1F46B8460E9F069300220023DDE971
:103420000C0106F10809013F05F064FE002840F098
:10343000B3810A9B776001333C44B8F1070F3360D6
:103440002394CDF8888000F3F28206F1100305F191
:1034500002084E469946129A726014441DABB8F1A8
:10346000070F2394CDF8888033607FF7D5AD21AA6C
:10347000DDE9071002F0F2FD00287FF437AC239C51
:103480000DF1B809C8E5102D229A2ADD49462046DB
:10349000B1464FF010082E461393DDE9075404E0BF
:1034A000103E102E01F1080116DD0132254B1030BF
:1034B000072ACDE92220C1E90038F1DD21AA2946F9
:1034C000204602F0CBFD00287FF410AC103E102EF9
:1034D000DDE922202EA9E8DC139B354604464E4642
:1034E0008946013217492C44072ACDE92224C9E92B
:1034F000001500F3AC8209F108094FE521AADDE9C6
:103500000710139302F0AAFD00287FF4EFAB239C71
:10351000139B0DF1B80953E521AADDE9071002F06C
:103520009DFD00287FF4E2AB239C0DF1B80956E520
:10353000102D229B27DD1026DDE907870BE000BF59
:10354000A0C7000850C0000860C00008103D102D42
:1035500009F1080917DD0133CF4A1034072BCDE9F3
:103560002234C9E90026F1DD21AA4146384602F09D
:1035700075FD00287FF4BAAB103D102DDDE9223433
:103580000DF1B809E7DC0133C34A2C44072BCDE920
:103590002234C9E900257FF748AD21AADDE90710EB
:1035A00002F05CFD00287FF4A1AB239C3DE5012BDC
:1035B00000F01384022BDDF808B07FF4F8ADDDF8DD
:1035C00040C02EAA230904F00F0043EA057329091D
:1035D0001C460D461CF8003002F8013D54EA050374
:1035E000F0D12EAB9B1A0A92CDF808B00693069B39
:1035F000B342B8BF3346039300230B931CE4DDF8BA
:1036000008B0002D08BF0A2C80F08A8001233034D6
:1036100006930DF1B7038DF8B740CDF808B00A93C3
:10362000E5E71B9B002B40F321820E9B0B9A9342F4
:10363000A8BF1346002B1D460EDD229B0A9AC9F82F
:10364000002001332C44072B2394C9F80450229303
:1036500000F3E68309F108090B9B002DA8BF5B1B53
:10366000002B1D4600F3AA811B9A0E9B9A4280F202
:103670008381229B1199C9F800100F99C9F8041091
:1036800001330C44072B2394229300F3588309F150
:1036900008090B990E9B9142A3EB020380F2BF81B4
:1036A0001D46002D10DD229AC9F80450DDE90A10EC
:1036B000013201442C44072AC9F80010CDE9222424
:1036C00000F3BC8309F10809002DACBF5D1B1D464A
:1036D000002D7FF7A1AC102D229ADFF8C0B140F386
:1036E000FA811026DDE9078705E009F10809103D98
:1036F000102D40F3F08101321034072ACDE9222445
:10370000C9E900B6F1DD21AA4146384602F0A6FC1F
:1037100000287FF4EBAADDE922240DF1B809E6E7E1
:103720002EABCDF808A0C246B0461E4601E00446C6
:103730000D460A2200232046294605F04BFD303273
:1037400006F8012D00230A222046294605F042FDF5
:10375000002D08BF0A2CEAD232460A964646D046C9
:10376000DDF808A0CDF808B02EAB9B1A06933EE713
:10377000029AD1073FF535AE01220A99C9F8001027
:10378000072DCDE92254C9F8042000F3508103F13C
:10379000020809F110095EE6002F7FF75CAE102FDA
:1037A000DFF8F8B040F3DF8323464FF01008DDE97F
:1037B0000749069D05E00836103F102F40F30082B0
:1037C00001351033072DCDE92253C6E900B8F2DDEB
:1037D00021AA2146484602F041FC00287FF486AA2F
:1037E000DDE922532EAEE7E721AADDE9071002F05A
:1037F00035FC00287FF47AAA239C0DF1B809FFF765
:10380000F7BBE51722462B46002A73F10003BFF6EB
:103810008DAB4FF02D08644265EB45058DF8678050
:103820000123FFF72ABB0025FFF7CCBA5446FFF768
:10383000BCB921AADDE9071002F010FC00287FF4D2
:1038400055AADDE922542EAED6E521AADDE90710FE
:1038500002F004FC00287FF449AADDE922542EAED0
:10386000D6E52EAB0A93C2E6049A1046D117C3E9F7
:103870000001FFF76EB91BF0400F18BFA4B200257E
:103880000123FFF7F6BA1BF040031CBF1346A4B296
:103890000025FFF7EEBA00BF50C0000860C0000866
:1038A000DDE90C0102460B4605F056FC002840F00D
:1038B0003683741C27F0200500F0BE82472D00F0EF
:1038C000B280DDE90C014BF4807200290292C0F253
:1038D00022829DED0C7B8DED167B00231393662FCA
:1038E00000F08381462F00F08081452D00F0788222
:1038F0001FAA1CABCDE9003202211BAB32469DED65
:10390000160B089800F0DEFB672F0A90344640F053
:1039100075821BF0010F40F074821B9A1F9B0B9263
:103920000A9A472DA3EB02030E9340F0A1810B9B53
:10393000D81CC0F29C819E42C0F299810E9B194610
:103940000B9B994200F39C821BF0010F40F0FA821E
:1039500023EAE372039206936727139B002B00F080
:103960005A822D238DF867300026FFF769BA40424E
:1039700005900993FFF7F6B9029BD8073FF579AE9A
:103980000B990E9B8A42A3EB020348DD1D469BE682
:103990004021089801F0EEFA079B18601861002892
:1039A00000F0F182079A40235361FFF7C4B80A9AE6
:1039B000CDF808B02EAB9B1A069318E6102B229A6E
:1039C000DFF8C8B340F396811026DDE9078705E0EC
:1039D00009F10809103D102D40F38C81013210349B
:1039E000072ACDE92224C9E900B6F1DD21AA414622
:1039F000384602F033FB00287FF478A9DDE9222461
:103A00000DF1B809E6E70A9802F0BAFA2E46034625
:103A10000690FFF708BA049A1A60FFF79AB80E9A50
:103A20000B99551A3DE6002E08BF012649E721AA49
:103A3000DDE9071002F012FB00287FF457A9DDE949
:103A400022340DF1C00903F101082EAE03E521AACD
:103A5000DDE90710139302F001FB00287FF446A96B
:103A6000239C139B0DF1B809FFF798BA229AC44919
:103A7000C9F80010013201340121072ACDE92224BE
:103A8000C9F8041000F34E8109F10809002B5DD13B
:103A9000029B0E9A03F0010313433FF4BDAA229A3E
:103AA000119BC9F800300F9BC9F8043001321C4447
:103AB000072A2394229200F3558109F108090E9BED
:103AC0000A9901321C44072ACDE92224C9E90013CE
:103AD0007FF7A0AACBE401322C44072ACDE92224A7
:103AE000C9E900B57FF796AAC1E421AADDE907106C
:103AF00002F0B4FA00287FF4F9A80DF1B809FFF735
:103B000099BB21AADDE9071002F0A8FA00287FF48A
:103B1000EDA8239C0DF1B809FFF765BA21AADDE9EC
:103B2000071002F09BFA00287FF4E0A8239C0DF117
:103B3000B809FFF798BB062E334628BF0623069325
:103B40000393904B09940A93FFF712BA229A1199A2
:103B5000C9F800100F99C9F8041001320C44072A63
:103B60002394229200F3FE8009F10809002BA6DAC3
:103B70005D421033DFF814B280F2A6815F46102652
:103B8000DDF81C80DDF820B005E009F10809103DE2
:103B9000102D40F3988101321034072ACDE92224F8
:103BA000C9E90076F1DD21AA4146584602F056FAED
:103BB00000287FF49BA8DDE922240DF1B809E6E78F
:103BC0001C4605F1010806F108023C44B8F1070F54
:103BD0002394C6E900B7CDF888803FF728AF08F1F5
:103BE000010802F10809164635E41FAA1CABCDE90D
:103BF000003203211BAB32469DED160B089800F0F6
:103C000061FA0A900A9B1B78302B00EB060400F047
:103C100071811B9B1C4400220023DDE9160105F085
:103C200069FA002840F098801F9BA34206D23021F9
:103C30005A1C1F9219701F9B9C42F9D80A9A9B1A12
:103C40000E93472D1B9B0B933FF471AE662F0FD144
:103C50000B9A0BF00103002A43EA060340F3D480D9
:103C6000002B40F054810B9B0393069375E6023FB3
:103C70000B9B8DF874705A1E002A1B92B6BFC3F1BD
:103C800001022B232D23092A8DF8753040F38C80F7
:103C90000DF1830420463C4D01E008461A4685FBA1
:103CA0000231D317C3EBA10303EB8301A2EB410164
:103CB0003031632A00F8011C00F1FF31EDDC3033B4
:103CC000821EDBB2944201F8013C40F259810DF1B1
:103CD000760201E011F8013B02F8013B8C42F9D178
:103CE0000DF185030DF176021B1A13441DAA9B1AD0
:103CF000129361E001322C44072ACDE92224C9E95C
:103D000000B545DC09F10809AEE44FF02D088DF847
:103D10006780FFF7E9B901F1004317932D2316904F
:103D20001393DCE521AADDE9071002F097F90028DA
:103D30007EF4DCAF1B9B239C0DF1B809A6E621AAFB
:103D4000DDE9071002F08AF900287EF4CFAF1B9A54
:103D5000239C0DF1B8099CE423466FE78DF86710AA
:103D6000FFF70DBA21AADDE9071002F077F9002864
:103D70007EF4BCAF1B9BDDE922240DF1B809F5E60A
:103D8000A0C7000898C700086766666660C000089C
:103D900021AADDE9071002F061F900287EF4A6AF40
:103DA000239C0DF1B8095FE4302330328DF8763072
:103DB00004238DF8772012930E9A129B012A134444
:103DC000069340F3B980069B0F9A1344069323EAA7
:103DD000E373039300230B93BFE5DDF808B015E40C
:103DE0001FA91CAB741CCDE9003122461BAB02217C
:103DF0009DED160B089800F065F90A90472F3FF4E7
:103E000088AD0A9B1C4406E7002B40F0A4800123E8
:103E100003930693A1E59DF86780139EFFF70CB806
:103E200021AADDE9071002F019F900287EF45EAF3F
:103E3000239C0DF1B8090FE4062642E521AADDE92D
:103E4000071002F00BF900287EF450AF1B9B0E9A6E
:103E5000239CD31A0DF1B80936E40396069609940B
:103E60000646CDF808B00B909DF86780FEF7E4BFDA
:103E70008DF86710FFF7ECB88DF86710FFF705B9FC
:103E8000DDE90E3213440B9A0693002A06DC0B9BE5
:103E9000069AC3F101031A441346069223EAE37318
:103EA0000393672759E58DF86710FFF72CB88DF855
:103EB0006710FFF700B88DF86710FEF776BF8DF832
:103EC0006710FFF723B9BB4601322C44072ACDE91E
:103ED0002224C9E900B57FF7F0AD21AADDE907107A
:103EE00002F0BCF800287EF401AFDDE922240DF1D8
:103EF000B809E4E500220023DDE9160105F0FAF82F
:103F000000287FF486AEC6F101031B9382E60F9B67
:103F1000D3183344069323EAE37303931DE50D9B03
:103F20001D4A002BB6BF4FF02D089DF867808DF815
:103F300067801A4BFFF7DAB81BF001020B927FF48F
:103F400042AFE8E70B9B0F9A1344069323EAE3730F
:103F50000393672701E50F9B01333344069323EA5C
:103F6000E3730393F9E44A462FE6099B9AF801703C
:103F700053F8046B0993824646EAE676FEF721BEC3
:103F80000223129318E7089A0C2313604FF0FF33B3
:103F90000493FEF7B4BE00BF68C700086CC70008F2
:103FA0002DE9F04F03690F69BB4283B0C0F28680F0
:103FB000013F01F1140600F1140A56F827305AF8AF
:103FC0002720BC000133009406EB04099A425444B4
:103FD000B2FBF3F801943AD300252A46B646D446FC
:103FE0005EF8044BDCF800301FFA84FB08FB0B552D
:103FF0004FEA154B240C08FB04B4ADB2551BA2B21A
:10400000C2EB134215FA83F302EB23429BB243EA5D
:104010000243F1454FEA14454CF8043B4FEA224273
:10402000DED2009B5AF803308BB9019A131F9A45D0
:104030000CD252F8043C4BB9A2F1080302E01A6812
:10404000043B1AB99A4507F1FF37F8D307610446D4
:1040500001F030FD00282DDB08F101085046002357
:1040600056F8041B05688AB29A1A0B0C12FA85F2EC
:10407000C3EB154303EB224392B242EA0342B1453C
:1040800040F8042B4FEA2343EAD25AF827200AEBE0
:1040900087037AB91A1F92450BD253F8042C42B900
:1040A000083B02E01A68043B1AB99A4507F1FF374A
:1040B000F8D32761404603B0BDE8F08F002003B07D
:1040C000BDE8F08F2DE9F04F57EC106B97B0056C01
:1040D000209C039182460A920793CDE9006755B16F
:1040E000426C6A6001239340AB60294601F072FA8A
:1040F0000023CAF840303E1EB4BF012300232360D2
:10410000754BBCBF26F000460196B34300F0AE806D
:104110009DED007B0022002351EC170B8DED047BFD
:1041200004F0E8FF054678B1079A01231360219B4C
:10413000002B00F01083694B219A1360013B02931E
:10414000029817B0BDE8F08FDDE9047814AA15A92C
:1041500048EC107B504601F0E1FD340D834640F001
:104160009B80DDE914542C4404F23243202B40F3AD
:10417000BA83C3F140039E40009B04F2124023FA2D
:1041800000F03043FDF732FFA1F1F8730121024640
:10419000013C0E91104619460022514BFDF7E8FDF7
:1041A00047A3D3E90023FDF79BFF47A3D3E90023EF
:1041B000FDF7E0FD064620460F46FDF727FF44A326
:1041C000D3E90023FDF78CFF02460B463046394603
:1041D000FDF7D0FD06460F4604F0D4FF00228146CD
:1041E00000233046394604F08FFF002840F0A682B5
:1041F0002C1BB9F1160F04F1FF3800F29382394BF2
:1042000003EBC903D3E90023DDE9040104F07CFFDB
:1042100000286DD00023B8F1000F09F1FF390D938C
:10422000C0F2868200230993B9F1000F66DA099B78
:10423000CDF81890A3EB09030993C9F100030C937F
:10424000039B092B4FF0000960D8052B40F34983ED
:10425000043B03930024039B023B032B00F2518693
:10426000DFE813F0680465043E045804079A42F23C
:104270000F731360009BC6F31306334318D1219BC1
:10428000002B00F03586184B02930833219A0298D0
:10429000136017B0BDE8F08FC8F3130141F07F53EE
:1042A0000E953A46A4F2FF3443F44013149D71E78F
:1042B000219B002B40F003840C4B029340E700BF8E
:1042C00061436F63A787D23FB3C8608B288AC63F1C
:1042D000FB799F501344D33F0000F07FA1C7000833
:1042E0000000F83F80C00008A8C70008A4C7000865
:1042F000B8F1000FC0F2BE840D90099000230C931A
:10430000039BCDF81890092BC8449ED900230124A3
:104310000393CDE90A344FF0FF3308930021089B43
:10432000CAF844100F93504601F02EF9029000286D
:1043300000F0F085029BCAF84030089B0E2B00F27B
:104340000A81002C00F007810699002940F3688457
:10435000B14B01F00F0203EBC20393ED007B0C1194
:10436000E2068DED107B40F10884AC4BDDE90401E1
:10437000D3E90823FDF7DEFFCDE9000104F00F04C7
:1043800003267CB1DDE91001A44DE30704D5D5E98E
:104390000023FDF7A5FE0136641005F10805F4D1F0
:1043A000CDE91001DDE90001DDE91023FDF7C2FFD1
:1043B000CDE900010D9B53B1DDE900450022984B8A
:1043C0002046294604F0A0FE002840F0278530460C
:1043D000FDF71CFEDDE90023FDF782FE914B002274
:1043E000FDF7C8FC089B0446A1F15075002B00F0B6
:1043F000FB83069B1293089B1093DDE90067394607
:10440000304604F0BFFE0090FDF700FE02460B466A
:1044100030463946FDF7ACFC7F4B009A0F461099A9
:10442000064603EBC1030B9802993032CDE90045F3
:10443000D5B24C1C53E90223002800F097840020D9
:104440007949FDF777FFDDE90023FDF791FC029B39
:1044500032461D703B46CDE9000104F073FE002892
:1044600040F0D48432463B4600206D49FDF780FC85
:1044700002460B46DDE9000104F064FE002840F02E
:104480003285109B012B62D0029ACDF840901344E4
:10449000CDF84C80DDE90089CDF800B0D3469A46CE
:1044A0000EE032463B4600205D49FDF761FC424686
:1044B0004B4604F029FE002840F0EE8454453FD0DE
:1044C000404649460022594BFDF70AFE0022574B51
:1044D0008046894630463946FDF702FE0F460646BD
:1044E00004F050FE0546FDF791FD02460B463046AE
:1044F0003946FDF73DFC3035EDB204F8015B42462C
:104500004B4606460F4604F0FFFD0028C9D0129B1B
:10451000DA460133DDF800B006935946504601F003
:1045200059F800232370079B1A46069B1360219BB2
:10453000002B3FF405AE02981C6017B0BDE8F08F69
:10454000DA46DDF84090DDF84C80DDF800B0DDE9BA
:104550000434CDE90034159B002BC0F2C680069AC6
:104560000E2A00F3C2802C4B03EBC203D3E900896F
:104570000A9B002B17DA089F002F14DC40F04D83B4
:1045800000222B4B40464946FDF7AAFDDDE90023FA
:1045900004F0CEFD002800F0C483089F3D460A9B2E
:1045A000029CDB435FE2DDE9004542464B46204684
:1045B0002946FDF7BFFE04F0E5FD06460090FDF735
:1045C00025FD42464B46FDF78BFD02460B46204635
:1045D0002946029C35463035FDF7CAFB069E04F895
:1045E000015B089D0136012D02460B46069652D00E
:1045F00000220E4BFDF774FD0022002306460F46F5
:1046000004F078FD002888D1CDF800B00125DDF850
:1046100020B0CDF80CA01AE080C0000870C10008DE
:104620000000F03F00001C400000E03F000024407C
:10463000000014400022B94BFDF752FD0022002378
:1046400006460F4604F056FD002840F060834246BF
:104650004B4630463946FDF76DFE04F093FD824629
:10466000FDF7D4FC42464B46FDF73AFD02460B46A9
:1046700030463946FDF77CFB01350AF13006AB4583
:1046800002460B4604F8016BD4D1DDF800B0CDF83A
:1046900000A0DDF80CA010461946FDF76BFB424662
:1046A0004B4606460F4604F04DFD60B942464B4668
:1046B0003046394604F01EFD00283FF42EAF009B23
:1046C000D9077FF52AAF14F8015C029A631E04E053
:1046D0009A4200F0C98313F8015D392D03F10104FA
:1046E000F6D06A1CD2B21A7017E70B9A002A38D09B
:1046F000039A012A40F35682089B5E1E0C9BB3422C
:10470000C0F235829E1B089B002BC0F20583099ADC
:1047100014461A44984409920121504601F05CF86D
:10472000054621E00123B8F1000F0D93BFF67AADE5
:10473000C4F1010309934FF0000875E54846FDF701
:1047400065FC32463B4604F0D5FC00287FF450ADB2
:1047500009F1FF394CE5724B0293029817B0BDE89E
:10476000F08F0C9E099C0B9D002C0CDDB8F1000F06
:1047700009DD4445099A2346A8BF4346D21A099247
:10478000E41AA8EB03080C9BD3B10B9B002B00F0A1
:104790008F81002E10DD29463246504601F0D8F8B0
:1047A0005A4601460546504601F02CF85946074640
:1047B000504600F00FFFBB460C9B9A1B40F07981DE
:1047C0000121504601F008F8B9F1000F074600F347
:1047D0009080039B012B40F3778100260120B9F1E3
:1047E000000F40F09180404410F01F0077D0C0F1DE
:1047F0002003042B40F38083C0F11C00099B034479
:10480000099304448044099B002B05DD59461A4650
:10481000504601F0E9F88346B8F1000F05DD39464E
:104820004246504601F0E0F807460D9B002B40F051
:104830002481089B002B40F3FB800B9B002B7FD136
:10484000069B01330693029CDDF82080012607E0D9
:10485000594600230A22504600F0C6FE0136834620
:1048600039465846FFF79CFBB04500F1300004F88C
:10487000010BEDDC03464FF000095946012250467A
:10488000009301F0B1F83946834601F013F900288E
:1048900014F8012C40F37881631E029904E09942D8
:1048A00000F08D8113F8012D392A03F10104F6D0AF
:1048B00001321A703946504600F08CFE002D3FF44C
:1048C0002CAEB9F1000F05D0A94503D0494650469A
:1048D00000F080FE2946504600F07CFE1DE61C20BC
:1048E0008CE70124B7E4C3F12006009B03FA06F02D
:1048F00048E401464A46504601F02AF8039B012B42
:10490000074640F3B98100263B6907EB830318692A
:1049100000F012FFC0F1200065E700BF0000244056
:10492000A0C70008294600230A22504600F05CFE7A
:104930000F9B002B054640F3CE82CDF818800893DC
:10494000002C00F30D81002E40F0CA81A846009B88
:104950000399029E03F001020B920A430A92089AFD
:10496000731E1A44099239465846FFF719FB294627
:104970000090584601F09EF842468146394650461E
:1049800001F0B4F8009BC26804463033002A41D1DC
:1049900001465846089301F08DF821460490504690
:1049A00000F018FE049A089B1AB90A99002900F031
:1049B0007A82B9F1000F06F10104C0F27481039903
:1049C00041EA09090B9951EA090100F06C81002ABA
:1049D00000F3A981099A3370B24200F0B0815946C0
:1049E00000230A22504600F0FFFD45458346294634
:1049F0004FF000034FF00A02504613D000F0F4FDD0
:104A00004146054600230A22504600F0EDFD2646A9
:104A10008046A8E701465046049300F0DBFD0122E2
:104A2000049BC6E700F0E0FD2646054680469AE76F
:104A3000039B022B40F38180089B002B7FF4AFADDA
:104A400039460522504600F0CFFD0146074658463C
:104A500001F030F800287FF7A2AD029C069B3122BE
:104A600004F8012B0133013339465046069300F018
:104A7000B1FD002D7FF42EAF4FE53946584601F0C9
:104A800019F80028BFF6D5AE594600230A22504631
:104A900000F0AAFD069B03F1FF380B9B8346002B19
:104AA0007FF440AF0F9B002B40F30A820893CAE6C5
:104AB0000C9A5946504600F04BFF834680E6A54BC2
:104AC00002930333FFF7E2BBDDE9001200297FF414
:104AD00084AEC2F31303002B00F0D980009E7DE664
:104AE00001230B930A9D002D49DD0F9508950021A8
:104AF000172DCAF844107FF716AC012204235B007F
:104B000003F11400A842114602F10102F7D9CAF8D4
:104B1000441008E401230B930A9B069A13440F9355
:104B20000133012B1D460893B8BF0125DFE70023A1
:104B30000B93F1E700230B93D4E70B9B002B7FF43F
:104B4000FFAE39465846FFF72BFA069A029C00F151
:104B500030030132069204F8013B4FF000098CE665
:104B600029462246504600F03FFF0546EBE60C9BE7
:104B70000C96F31A99440026C5E5022601E40123A8
:104B80000A930893FFF7CABB03D1009BDB073FF5ED
:104B900083AE631E01E013F8012D302A03F10104F6
:104BA000F9D087E60E9A002A00F0CF8003F2334353
:104BB000099A0C9E14461A4498440992ACE5069A48
:104BC00001320692029A3123137073E63046FDF7E4
:104BD0001DFADDE90023FDF783FA00225E4BFDF7A5
:104BE000C9F80446A1F1507500225C4BDDE90001D3
:104BF000FDF7BEF822462B4606460F4604F0A2FA01
:104C0000002840F08D80224605F1004330463946A9
:104C100004F07AFA00283FF49AAC00273D46BEE43F
:104C200000F0F980069B5C424D4B04F00F0203EB51
:104C3000C203D3E90023DDE90401FDF751FA241191
:104C4000CDE9000100F0E780464D00230226E7078A
:104C500005D5D5E90023FDF743FA01360123641099
:104C600005F10805F3D1002B3FF4A4ABCDE9000119
:104C7000FFF7A0BB0D905BE5009B002B7FF443AEDC
:104C8000DDE90012C2F31303002B7FF43CAE364E75
:104C90001640002E3FF4A2AD099B0133099308F1A1
:104CA000010801269AE50699002A01F10101069101
:104CB00012DD594601225046039300F095FE394615
:104CC000834600F0F7FE0028039B40F3DF80392B7A
:104CD00000F0D180009B3133A94633704546E9E5A9
:104CE0006968504600F050FC0446002800F0198125
:104CF0002B6902339A0005F10C010C30FDF758FCCA
:104D000021460122504600F06FFE80461FE6DDF886
:104D100000B0DDF80CA000E4DDE908239C1AFBE4F8
:104D200000273D4699E6069A392B02F101020692C8
:104D300000F0A1800133A94633704546BAE5069AD2
:104D40000132A9460692454697E5149BC3F1360306
:104D50002EE700BFA4C7000800001C40000014405C
:104D600080C0000870C100080000F07FDDE900018C
:104D7000FDF7B6F9029B1D70109B012BCDE90001D8
:104D800023D0109B029ACDF840901344C146984618
:104D900000226D4B30463946FDF7A2F90F46064614
:104DA00004F0F0F90546FDF731F9303502460B46BF
:104DB00030463946FCF7DCFF04F8015B4445064603
:104DC0000F46E5D1C846DDF84090604B0022DDE992
:104DD0000001FCF7CFFF32463B4604F095F900286E
:104DE0004ED1DDE9002300205849FCF7C1FF3246CF
:104DF0003B4604F0A7F900283FF4A9AB00E01446B5
:104E000014F8013C302B04F1FF32F8D0129B01332F
:104E10000693FFF782BB0226FFF7CCBA089B002B54
:104E20003FF4D4AE0F9F002F7FF791AB0022464B8B
:104E300020462946FDF754F904460D46701CCDE97D
:104E40000045FDF7E3F822462B46FDF749F9404BB4
:104E50000022FCF78FFF069B1097013B0446A1F14F
:104E600050751293FFF7C9BA069A013206923122A1
:104E70001A70FFF752BB3922A946327045460BE53E
:104E8000129B0133069314F8015C1EE47FF424AFF7
:104E9000DA077FF521AF1AE7129B0133DA46069352
:104EA000DDF800B011E4069A392B02F101020692F6
:104EB00006F10104DFD0B9F1000F3FF70BAF0BE7AC
:104EC000039B022B02DCCDF818803AE60F9B089377
:104ED000CDF81880B0E5039B022BF7DC0F9BCDF8D3
:104EE000188008932CE5129B01330693FFF7EDBB66
:104EF000184B0293FFF724B93FF485ACC0F13C0096
:104F00007CE40024CAF844402146504600F03CFBB3
:104F1000029068B9104B114800224FF4D57101F08E
:104F20004FFE02460C4B0D4840F2EA2101F048FECC
:104F30004FF0FF330893029A0F930123CAF84020E1
:104F40000A940B93FFF707BB000024400000E03FEA
:104F500000001C40A8C70008B4C70008C8C7000864
:104F6000F03070470048704738090020004870470B
:104F7000380900202DE9F04F01F10B05162D83B003
:104F8000064623D8102900F2B98000F0F9FA10255E
:104F900018230220CD4F3B44A3F108025C689442E1
:104FA00000F0B980636823F003032344D4E902517D
:104FB0005A68E96042F0010230468D605A6000F0A4
:104FC000E1FA0834204603B0BDE8F08F35F007055C
:104FD00000F19480A94200F2918000F0D1FAB5F579
:104FE000FC7FC0F09D816B0A00F08F80042B00F2E3
:104FF0007381AB0903F1390003F1380CC300B34FDF
:105000003B44A3F108015C68A14206D10CE0002AF0
:1050100080F22B81E468A14206D0636823F0030389
:105020005A1B0F2AF3DD60463C69DFF8A4C26445D1
:105030007CD0636823F003035A1B0F2A00F37E81A0
:10504000002AC7E904CC80F26F81B3F5007F80F0BD
:105050001A81DB08591C7A6857F83180C4F8088037
:105060004FF0010E9B100EFA03F307EBC10E134332
:10507000AEF10802E2607B6047F83140C8F80C40AE
:105080008210012494409C4256D81C4206D120F044
:10509000030064001C4200F10400FAD007EBC009D1
:1050A000CE468046DEF80C309E4507D120E1002A2E
:1050B00080F22781DB689E4500F01A81596821F053
:1050C00003014A1B0F2AF2DDD3E9028E5C1945F079
:1050D00001055D6042F00105C8F80CE03046CEF8ED
:1050E0000880C7E90444C4E902CC65605A500093C3
:1050F00000F048FA009B03F1080402E00C2333603F
:105100000024204603B0BDE8F08F4FF40073402028
:105110004FF03F0C73E7DC68A34208BF02307FF416
:1051200041AF3C69DFF8A8C1644582D17B68821039
:10513000012494409C42A8D9BC68636823F003080A
:10514000A84503D3A8EB05030F2B7EDCDFF8849181
:10515000D7F80824D9F80030013204EB080A2B44B0
:1051600000F0378103F580530F3323F47F6B2BF06E
:105170000F0B5946304600F0DBFE411C024600F0A2
:10518000F780824500F2F280D9F804105944C9F83A
:1051900004100B4600F05381D7F8081401311BBFEF
:1051A000A2EB0A0A5344C7F80824C9F8043012F0E5
:1051B000070300F01A81C3F108010A44C3F58051C6
:1051C00093440831A1EB0B01C1F30B0A5146304661
:1051D0000193009200F0ACFE421CDDE9002300F0D8
:1051E0005381831A03EB0A0BD9F80410BA604BF011
:1051F00001035144BC425360C9F8041000F02B81F4
:10520000B8F10F0F40F229816368A8F10C0020F07B
:10521000070003F0010304EB000C03434FF0050EFD
:105220000F286360CCE901EE00F235815368144623
:10523000D9F82C208A42D9F8302038BFC9F82C1070
:105240008A4238BFC9F8301094E0621943F0010374
:1052500045F0010565603046BA60536000F092F990
:105260000834204603B0BDE8F08F2344E1685A6853
:10527000A56842F00102E96030468D605A6000F096
:1052800081F908343DE75A0A042A69D9142A00F240
:10529000BE8002F15C01C9005B3207EB010E795858
:1052A000AEF1080E8E4500F097804A6822F00302A6
:1052B0009A4202D989688E45F7D1D1F80CE07B6813
:1052C000C4E9021ECEF80840CC60D9E638040020BC
:1052D00040040020B8090020142B59D9542B00F2A7
:1052E0009E802B0B03F16F0003F16E0CC30086E66A
:1052F00008F1010818F0030F0EF1080E7FF4D2AE8A
:1053000051E019441C464A68DB6854F8085F42F0D3
:1053100001024A603046EB609D6000F033F9F0E630
:10532000E80805F1080335E6234430465A6842F0A0
:1053300001025A60083400F025F9E2E6611945F0EF
:10534000010E42F00105C4F804E03046C7E904113B
:10535000C1E902CC4D60E25000F014F90834D0E607
:105360009A0902F13901C900383296E7BC4260D08F
:10537000BC68636823F0030BAB45ABEB050302D3BA
:105380000F2B3FF762AF304600F0FCF80024B8E680
:1053900003F15C0003F15B0CC30030E659F80839F7
:1053A0004B4540F0968010F0030F00F1FF30F5D12F
:1053B0007B6823EA04037B6064009C423FF6BCAE3A
:1053C0001CB9B9E6640008F104081C42FAD0404652
:1053D00064E603F1100BCCE67B6892104FF00108F5
:1053E00008FA02F213437B606AE702EB0B014942C1
:1053F000C1F30B0A514630460193009200F098FD2C
:10540000431CDDE900237FF4ECAE9A46ECE6542A17
:1054100026D81A0B02F16F01C9006E323DE7B3F5D1
:10542000AA7F26D8EB0B03F1780003F1770CC300B9
:10543000E5E5D9F804305B44C9F80430ACE6CAF3BA
:105440000B0000287FF4A8AE08EB0B03BC6843F008
:1054500001036360ECE61446EAE60123536092E739
:10546000B2F5AA7F21D8DA0B02F17801C9007732B0
:1054700013E740F25452934221D8AB0C03F17D0064
:1054800003F17C0CC300BAE5083B9B44ABEB020B79
:105490004FF0000AA8E604F10801304601F056FC7E
:1054A000BC68D9F804106368C2E640F254518A42DD
:1054B0000BD89A0C02F17D01C9007C32EDE64FF465
:1054C0007E737F204FF07E0C99E54FF47E717E2233
:1054D000E3E67B6870E700BF00000000000000000A
:1054E00001F0FF01102A2BDB10F0070F08D010F895
:1054F000013B013A8B422DD010F0070F42B3F6D199
:10550000F0B441EA012141EA014122F007047FF0B1
:1055100000070023F0E80256083C85EA010586EA08
:10552000010685FA47F5A3FA87F586FA47F6A5FA44
:1055300087F68EB9EED1F0BC01F0FF0102F0070250
:1055400032B110F8013B013A83EA010313B1F8D1FB
:105550000020704701387047002D06BF35460338DC
:10556000073815F0010F07D1013015F4807F02BF15
:10557000013015F4C03F0130F0BC0138704700BF66
:10558000704700BF704700BFC36C70B505460C463E
:105590004BB153F8240080B1026843F82420002363
:1055A000C0E9033370BD2122042101F02DFB034625
:1055B000E8640028EDD1002070BD012101FA04F655
:1055C000721D2846920001F01FFB0028F3D0C0E9AD
:1055D0000146E4E731B1C36C4A6853F82200086021
:1055E00043F82210704700BFF0B50C6983B00D4638
:1055F000064601F1140C0027DCF8000081B202FB22
:105600000133190C000C02FB00109BB2013703EBB5
:105610000043BC424CF8043B4FEA1043ECDC3BB186
:10562000AA68A24207DD05EB8402013453612C61B4
:10563000284603B0F0BD6968019330460131FFF799
:10564000A3FF019B0746B8B12A690193023205F115
:105650000C0192000C30FCF7ABFFF26C6968019B07
:1056600052F82100286042F821503D4605EB8402A3
:10567000013453612C61DBE70246024B0248B5213D
:1056800001F09EFAB4C70008FCC700082DE9F843F2
:10569000264C089E1D46083384FB034C092D4FEA17
:1056A000E373904607460C46C3EB6C0236DD0123DC
:1056B00000215B009A4201F10101FADC3846FFF754
:1056C00063FF68B30123B8F1090FC0E9043613DCA6
:1056D0000A344FF0090845450CDDA5EB08052544C3
:1056E00014F8013B0146303B0A223846FFF77CFFA5
:1056F000A542F5D1BDE8F88304F109094E464444BA
:1057000016F8013B0146303B0A223846FFF76CFF92
:10571000B442F5D1A8F108044C44DCE70021CDE700
:105720000246034B0348CE2101F04AFA398EE33892
:10573000B4C70008FCC70008020C12040346CAB92B
:105740000304102013F07F4F04BF1B02083013F036
:10575000704F04BF1B01043013F0404F04BF9B0087
:105760000230002B05DB13F0804F00F1010008BF71
:10577000202070470020E5E7036813F00702014688
:1057800007D0DA0720D4980722D55B080B600120E8
:10579000704798B2B0B91B0C102013F0FF0F04BF74
:1057A0001B0A08301A0704BF1B0904309A0704BFFC
:1057B0009B080230DA0703D45B0800F1010005D032
:1057C0000B6070471046E8E70020704720207047C4
:1057D0009B080B600220704710B50C460121FFF7B3
:1057E000D3FE024618B10123C0E9043410BD034BB7
:1057F00003484FF4A07101F0E3F900BFB4C70008FB
:10580000FCC700082DE9F04F0E691769BE4283B04E
:105810000C46154605DB3A462B4637460D461646DE
:105820001C46D5E9011307EB06084345B8BF013113
:10583000FFF7AAFE009000287FD0009B03F1140A16
:105840000AEB8809CA4505D25346002143F8041BD8
:105850009945FBD804F1140E0EEB860B05F11403E9
:10586000DE4503EB870753D2CDF80480984605E068
:10587000090C28D1F3450AF1040A47D95EF8041B44
:105880008EB2002EF4D045465446002355F8041B32
:1058900020688AB21FFA80FC06FB02C2090C000CC9
:1058A000134406FB010202EB13429BB243EA02439C
:1058B000AF4244F8043B4FEA1243E7D823605EF856
:1058C000041C090CD6D0DAF8003040461A4654467B
:1058D0004FF0000C0588120C01FB052294449BB28A
:1058E00043EA0C4344F8043B50F8043B22681B0C89
:1058F00095B201FB035303EB1C4387424FEA134C61
:10590000E8D8F34523600AF1040AB7D8DDF804802B
:10591000B8F1000F0BDD59F8043CA9F104091BB1E3
:1059200005E059F8043D13B9B8F10108F9D1009820
:10593000C0F8108003B0BDE8F08F0246024B034868
:1059400040F25D1101F03CF9B4C70008FCC7000843
:1059500012F003032DE9F041144607462ED10D46FF
:10596000A4101CD0BE6C96B3E3074FF0000806D419
:10597000641014D03068A8B10646E307F8D5324663
:1059800029463846FFF73EFFB5B16A68FB6C6410E4
:1059900053F82210296043F822500546EAD12846E0
:1059A000BDE8F081324631463846FFF72BFF3060C4
:1059B000C0F800800646E0E70546D9E7013B094A02
:1059C00052F823200023FFF70FFE0546C8E740F2F8
:1059D00071213846FFF700FF0023B86406460360D4
:1059E000C2E700BF70C000082DE9F8430E690D46FC
:1059F0004FEA6219D1E901134E44741C9C4290464F
:105A0000074604DD5B009C4201F10101FADC3846E7
:105A1000FFF7BAFD002842D0B9F1000F00F1140CD5
:105A20000EDD09F105094FEA890900EB090163461A
:105A3000002243F8042B8B42FBD1A9F11409CC447A
:105A4000296905F1140318F01F0803EB810E1DD01E
:105A5000C8F120090022196801FA08F111434CF835
:105A6000041B53F8042B734522FA09F2F3D3CCF844
:105A70000020002A18BF2646FB6C6A68066153F8AE
:105A80002210296043F82250BDE8F883ACF1040CE1
:105A900053F8042B4CF8042F9E45F9D8ECE7024646
:105AA000024B034840F2D91101F08AF8B4C700084C
:105AB000FCC7000830B40B6905460069C01A10D154
:105AC0009B001435143119442B4401E09D4208D247
:105AD00053F8044D51F8042D9442F7D003D24FF0FF
:105AE000FF3030BC7047012030BC70472DE9F843CF
:105AF00016460B691269A3EB0208B8F1000F0D46B8
:105B000067D1920001F1140706F11401BB1811448A
